{
  "transactions": [
    {
      "hash": "0xf1fac92f1fff5542fc3140bfd08481b3995da2725449d1e2d77d82e24a6b54e8",
      "transactionType": "CALL",
      "contractName": null,
      "contractAddress": "0xee6ec9f801e9feee97cc38fd5cbe719f7f09a020",
      "function": "mint(address)",
      "arguments": [
        "0xDb7671Ea4f4029e21644330719839f2A13c9B040"
      ],
      "transaction": {
        "from": "0xdb7671ea4f4029e21644330719839f2a13c9b040",
        "to": "0xee6ec9f801e9feee97cc38fd5cbe719f7f09a020",
        "gas": "0x1fa3a",
        "value": "0x0",
        "input": "0x6a627842000000000000000000000000db7671ea4f4029e21644330719839f2a13c9b040",
        "nonce": "0xb",
        "chainId": "0xaa36a7"
      },
      "additionalContracts": [],
      "isFixedGasLimit": false
    }
  ],
  "receipts": [
    {
      "type": "0x2",
      "status": "0x1",
      "cumulativeGasUsed": "0x1452730",
      "logs": [
        {
          "address": "0xee6ec9f801e9feee97cc38fd5cbe719f7f09a020",
          "topics": [
            "0xddf252ad1be2c89b69c2b068fc378daa952ba7f163c4a11628f55a4df523b3ef",
            "0x0000000000000000000000000000000000000000000000000000000000000000",
            "0x000000000000000000000000db7671ea4f4029e21644330719839f2a13c9b040",
            "0x0000000000000000000000000000000000000000000000000000000000000001"
          ],
          "data": "0x",
          "blockHash": "0x5b20e1ca819fd5d12cb2f3ebdb23811f67eaf29782f5fa920323412d3652fdaf",
          "blockNumber": "0xaa34b0",
          "blockTimestamp": "0x6a40667c",
          "transactionHash": "0xf1fac92f1fff5542fc3140bfd08481b3995da2725449d1e2d77d82e24a6b54e8",
          "transactionIndex": "0xc6",
          "logIndex": "0x35d",
          "removed": false
        }
      ],
      "logsBloom": "0x00000000000000000000000000000000000000000000000000000000000000000000000000000000000000000000000000000000000000000000100000040000000000000000000000000008000000000000000000040000000000000000000000000000020000000000000000000800000000000000000000000010000000000000000000000000000000000000000000000000100000000000000000000000000000000000000000000000000000000000000000000000000000002000000000000002000000000000000000000000200000000000000000000000000060000000000000000000000000000000000000000000000000000020000000000000",
      "transactionHash": "0xf1fac92f1fff5542fc3140bfd08481b3995da2725449d1e2d77d82e24a6b54e8",
      "transactionIndex": "0xc6",
      "blockHash": "0x5b20e1ca819fd5d12cb2f3ebdb23811f67eaf29782f5fa920323412d3652fdaf",
      "blockNumber": "0xaa34b0",
      "gasUsed": "0x16e80",
      "effectiveGasPrice": "0x5aec80df",
      "from": "0xdb7671ea4f4029e21644330719839f2a13c9b040",
      "to": "0xee6ec9f801e9feee97cc38fd5cbe719f7f09a020",
      "contractAddress": null
    }
  ],
  "libraries": [],
  "pending": [],
  "returns": {},
  "timestamp": 1782605437188,
  "chain": 11155111,
  "commit": "24bdc48"
}